:1001B8007869616F20796100686F6E672064656E89
:1001C80067006C762064656E67006C616E206465FC
:1001D8006E67006775616E2064656E6700796920D7
:1001E80068616F2064656E6700652068616F2064D0
:1001F800656E670073616E2068616F2064656E6765
:100208000073692068616F2064656E6700777520E8
:0902180068616F2064656E6700E7
:030462000110FF87
:040391007FF47E0176
:10039500D3EF9400EE6480948040147D967C00ED4C
:0F03A5001D70011CED4C70F7EF1F70E41E80E11E
:0103B4002226
:10041B00D2A000D2A10000000000C2A0000000008A
:06042B0000C2A100002246
:1003B500C2A000D2A120A104D2A180F900000000B2
:0F03C50000D2A020A004D2A080F90000000022E6
:07028500AD0712041B7F1EF0
:10028C00E4FEEFA806088002C333D8FC30E704D2A2
:10029C00A08002C2A000D2A120A104D2A180F900AA
:1002AC0000000000C2A10EBE08D800000000D2A0C1
:1002BC0000000000D2A120A104D2A180F90000000E
:0D02CC0030A004C2008002D200C2A10000D8
:0102D9002202
:10035F00E4FFFED2A000C2A130A104C2A180F90027
:10036F0000000000D2A120A104D2A180F90000EF6B
:10037F0025E0FF30A0010F00000EBE08D8C2A1007B
:01038F00006D
:01039000224A
:1003D400200104C2A08002D2A0000000D2A100002B
:0803E400000000C2A10000228C
:10040400120285200002C322AF0512028C200002D2
:07041400C3221203B5D3223D
:0A045800AC05120404AF0402040412
:100320001202852000037F0022AF0512028C2000FC
:10033000037F00221203B57F327E00120395120460
:100340001B7F1F12028C2000037F00227F017E0092
:0E03500012039512035FD2011203D41203B5FB
:01035E00227C
:080221008F098B0A8A0B890C7E
:10022900E4F50DF50E120431EF2402F50FAB0AAA1D
:100239000BA90C120431AC077F01120404AF0F1291
:100249000404AF09120404E4F50DF50EECFFC3E54F
:100259000E9F7480F8650D98501DAB0AAA0BA90C66
:10026900850E82850D831202DAFF120404050EE55C
:0C0279000E70D9050D80D5E4FF020404CE
:1003EC00AC07AA057F03120404AF04120404AF0285
:0803FC00120404AF0302040423
:100446007BFFEB600C7F0C120320AB07120391803D
:01045600F1B4
:010457002282
:100003007508FF7D407F051204581204467D017F69
:10001300021204581204467BFF7A0179B8E4FF12F6
:1000230002211204467BFF7A0179C07F011202216B
:100033001204467BFF7A0179CA7F0212022112045D
:10004300467BFF7A0179D27F031202211204467B99
:10005300FF7A0179DB7F041202211204467BFF7AC7
:100063000179E57F051202211204467BFF7A0179AB
:10007300F17F061202211204467BFF7A0179FC7F8D
:10008300071202211204467BFF7A0279097F0812C4
:1000930002211204467BFF7A0279157F091202219D
:1000A300120446E508640A600C7F0A1203208F08D5
:1000B30012039180EE7D557F041204587BFF7DFF70
:1000C3007FFF1203EC7D017F091204587FE87E0352
:1000D300120395E4FD7F09120458E4FBFDFF1203AC
:1000E300EC7F081203208F10E510B40504C2908042
:1000F30033E510B40604C291802AE510B40704C2A4
:10010300928021E510B40804C2938018E510B40965
:1001130004C294800FE510B4040AD290D291D29213
:09012300D293D29412039180B82A
:0300000002012CCE
:0C012C00787FE4F6D8FD75812002017395
:1002DA00BB010CE58229F582E5833AF583E02250D9
:1002EA0006E92582F8E622BBFE06E92582F8E22223
:0D02FA00E58229F582E5833AF583E493223D
:10043100E4FFFE120307600C0FEF70010E09E97073
:05044100F20A80EF2229
:10013800020003E493A3F8E493A34003F68001F2DA
:1001480008DFF48029E493A3F85407240CC8C333C8
:10015800C4540F4420C8834004F456800146F6DF97
:10016800E4800B0102040810204080900462E47EC1
:10017800019360BCA3FF543F30E509541FFEE4938C
:10018800A360010ECF54C025E060A840B8E493A353
:10019800FAE493A3F8E493A3C8C582C8CAC583CA7E
:1001A800F0A3C8C582C8CAC583CADFE9DEE780BE36
:010465000096
:10030700BB010689828A83E0225002E722BBFE02F4
:09031700E32289828A83E4932227
:00000001FF
