:03041E000110FFCB
:10024F001200037F081202DC8F10E510B40104C204
:10025F00A4802BE510B40204C2A58022E510B403DC
:10026F0004C2A68019E510B40404C2A78010E510DB
:10027F00B40504C2A38007E510B40902D2A47FF429
:07028F007E0112034D80BC4B
:100203007869616F2079610079692068616F206D79
:10021300656E0065722068616F206D656E007361A5
:100223006E2068616F206D656E0073692068616F71
:10023300206D656E0077752068616F206D656E00B7
:0C0243006C69752068616F206D656E00AD
:10034D00D3EF9400EE6480948040147D967C00ED94
:0F035D001D70011CED4C70F7EF1F70E41E80E166
:01036C00226E
:1003D300D2A000D2A10000000000C2A000000000D3
:0603E30000C2A10000228F
:10036D00C2A000D2A120A104D2A180F900000000FA
:0F037D0000D2A020A004D2A080F900000000222E
:0701AE00AD071203D37F1E11
:1001B500E4FEEFA806088002C333D8FC30E704D27A
:1001C500A08002C2A000D2A120A104D2A180F90082
:1001D50000000000C2A10EBE08D800000000D2A099
:1001E50000000000D2A120A104D2A180F9000000E6
:0D01F50030A004C2008002D200C2A10000B0
:0102020022D9
:10031B00E4FFFED2A000C2A130A104C2A180F9006B
:10032B0000000000D2A120A104D2A180F90000EFAF
:10033B0025E0FF30A0010F00000EBE08D8C2A100BF
:01034B0000B1
:01034C00228E
:10038C00200104C2A08002D2A0000000D2A1000073
:08039C00000000C2A1000022D4
:1003BC001201AE200002C322AF051201B5200002CB
:0703CC00C32212036DD322CE
:0A041400AC051203BCAF040203BCE8
:1002DC001201AE2000037F0022AF051201B52000F1
:1002EC00037F002212036D7F327E0012034D120336
:1002FC00D37F1F1201B52000037F00227F017E00F7
:0E030C0012034D12031BD20112038C12036D5B
:01031A0022C0
:08014A008F098B0A8A0B890C56
:10015200E4F50DF50E1203FFEF2402F50FAB0AAA28
:100162000BA90C1203FFAC077F011203BCAF0F12E5
:1001720003BCAF091203BCE4F50DF50EECFFC3E5B9
:100182000E9F7480F8650D98501DAB0AAA0BA90C3E
:10019200850E82850D83120296FF1203BC050EE5C1
:0C01A2000E70D9050D80D5E4FF0203BCEF
:1003A400AC07AA057F031203BCAF041203BCAF025F
:0803B4001203BCAF030203BCFD
:1003E9007BFFEB60107F0C1202DCAB077FF47E0110
:0503F90012034D80ED30
:0103FE0022DC
:100003007508FF7D407F051204141203E97D017F0B
:10001300021204141203E97BFF7A027903E4FF124C
:10002300014A1203E97BFF7A02790B7F0112014A2D
:100033001203E97BFF7A0279167F0212014A120347
:10004300E97BFF7A0279217F0312014A1203E97BDC
:10005300FF7A02792D7F0412014A1203E97BFF7AAA
:100063000279387F0512014A1203E97BFF7A02798C
:10007300437F0612014A1203E9E508640A60107F10
:100083000A1202DC8F087FF47E0112034D80EA7DA1
:10009300557F041204147BFF7DFF7FFF1203A47DB1
:1000A300017F091204147FE87E0312034DE4FD7FF0
:0B00B30009120414E4FBFDFF0203A48B
:030000000200BE3D
:0C00BE00787FE4F6D8FD75812002010572
:10029600BB010CE58229F582E5833AF583E022501D
:1002A60006E92582F8E622BBFE06E92582F8E22267
:0D02B600E58229F582E5833AF583E4932281
:1003FF00E4FFFE1202C3600C0FEF70010E09E970EB
:05040F00F20A80EF225B
:1000CA0002024FE493A3F8E493A34003F68001F2FB
:1000DA0008DFF48029E493A3F85407240CC8C33337
:1000EA00C4540F4420C8834004F456800146F6DF06
:1000FA00E4800B010204081020408090041EE47E74
:10010A00019360BCA3FF543F30E509541FFEE493FA
:10011A00A360010ECF54C025E060A840B8E493A3C1
:10012A00FAE493A3F8E493A3C8C582C8CAC583CAEC
:10013A00F0A3C8C582C8CAC583CADFE9DEE780BEA4
:0104210000DA
:1002C300BB010689828A83E0225002E722BBFE0239
:0902D300E32289828A83E493226C
:00000001FF
