:0F00E2000D0868656C6C6F20776F726C640A0094
:0B010100EF1FAC0670011E4C70F622D0
:0F00F200759850758920758DFD758BFDD28E2206
:08010C008F993099FDC2992280
:10008F008B158A168917AB15AA16A9171200B4601B
:10009F00130517E5177002051614F91200B4FF12B5
:0500AF00010C80E222BB
:1000CD001200F27B007A00790812008F7F207E4E9D
:0500DD0012010180EE9C
:03000000020003F8
:0C000300787FE4F6D8FD75811702004AF2
:1000B400BB010689828A83E0225002E722BBFE024A
:0900C400E32289828A83E493227D
:10000F000200CDE493A3F8E493A34003F68001F23A
:10001F0008DFF48029E493A3F85407240CC8C333F2
:10002F00C4540F4420C8834004F456800146F6DFC1
:10003F00E4800B01020408102040809000E2E47E6F
:10004F00019360BCA3FF543F30E509541FFEE493B6
:10005F00A360010ECF54C025E060A840B8E493A37D
:10006F00FAE493A3F8E493A3C8C582C8CAC583CAA8
:10007F00F0A3C8C582C8CAC583CADFE9DEE780BE60
:0100F100000E
:00000001FF
