:030BB700256400B2
:0F0B74000D0968656C6C6F20776F726C640A00F6
:0B0B8400EF1FAC0670011E4C70F62243
:0B0B8F00120AFD120B5112059280FBB0
:030023000207B120
:1007B100C0E0C0D0309843C29885991AC2ACE51AFE
:1007C10024CE601514601714601914601B14601D89
:1007D1002405701C75A0FE801775A0FD801275A000
:1007E100FB800D75A0F7800875A0EF800375A0DF71
:0F07F100D2AC851A993099FDC299D0D0D0E032A0
:10059200E5194518705F7518007519011209B28FB7
:1005A20008E51765085508F5168508177525FF75BE
:1005B200260B7527B7752800851B297B007A0079E1
:1005C20009120082E50824FE601214601714601CF0
:1005D2002403702175A0FE751B01801675A0FD75A0
:1005E2001B02800E75A0FB751B03800675A0F775B4
:0605F2001B04120BA52200
:090BA5007B007A007909020924A1
:03000B000209E9FE
:1009E900C0E00519E51970020518640A4518700474
:0709F900F518F519D0E032FA
:100AFD00759850E4F587758920D2AFD2AC758BFD12
:060B0D00758DFDD28E2261
:080003008F993099FDC299228A
:100924008B228A238924AB22AA23A9241204786067
:10093400130524E5247002052314F9120478FF1228
:05094400000380E22227
:100B51005389F0758ACD758CD4C28DD28CD2AFD227
:020B6100A922C7
:0B0B9A00EF1FAC0670011E4C70F6222D
:1005F800E4F51D75900FE590640F605075900FAF8E
:1006080090EF24F5601024FE601114601324077025
:1006180012751C01800D751C028008751C0380036F
:10062800751C047590F0AF90EF2450601124E060C1
:100638001124F0601124707013851C1C800E740442
:0E064800800674088002740C251CF51CAF1C83
:010656002281
:1009B2002080047F0180172081047F028010208222
:0E09C200047F0380092083047F048002E4FF89
:0109D0002204
:10075D005B256325645D005B25635D00BBB6D3AD92
:10076D00C0B4B5BDB9F0C1D6B5E7D7D3BFC6BCBC13
:10077D00B4F3D1A7D0C5CFA2BFC6BCBCD1A7D4BA44
:10078D0000CED2D7F0B9F3B5C4B9CBBFCDC7EBCE40
:10079D00CAC4FAD0E8D2AAB5E3CAB2C3B4C4D80069
:0407AD00FD00012129
:040949007F0A7E00A3
:10094D00D3EF9400EE6480948040147D967C00ED8E
:0F095D001D70011CED4C70F7EF1F70E41E80E160
:01096C002268
:100B1300D2A000D2A10000000000C2A0000000008B
:060B230000C2A100002247
:100B6300C2A000D2A10000000000D2A0000000003B
:010B7300225F
:10084200E4FEEFA806088002C333D8FC30E704D2E6
:10085200A08002C2A000D2A10000000000C2A10E2E
:10086200BE08DF00000000D2A000000000D2A100FC
:0F087200000030A004C20A8002D20AC2A1000016
:010881002254
:10096D00E4FFFED2A000C2A10000000000D2A10051
:10097D0000EF25E0FF30A0010F00000EBE08E6C21B
:03098D00A10000C6
:010990002244
:1009D100200904C2A08002D2A0000000D2A1000020
:0809E100000000C2A100002289
:10099100AD07120B137F60120842200A02C322AF77
:1009A10005120842200A02C322120B63120949D31D
:0109B1002223
:0A0882008B608A6189628C638D64CB
:10088C00E4F565F566C3E5669564E5636480F8E5B3
:10089C0065648098501DAB60AA61A96285668285EB
:1008AC006583120491FF1209910566E56670D60501
:0308BC006580D282
:0108BF002216
:100657007558FF755900755A00755BFF785C7C000B
:100667007D007BFF7A0779AD7E007F041204527B01
:10067700007A00795C7D047C001208827F647E002A
:1006870012094D120B137F61120842200A037F00E3
:10069700227F057E0012094D12096D8F58D209126B
:0706A70009D1120B63AF58EB
:0106AE002229
:0806AF008D398B368A3789383A
:1006B70012000EEF2402FFE43EAD07753AFDF53B4D
:1006C7008D3C753D0185393E85363F8537408538F8
:1006D70041AF3A120991AF3B120991AF3C12099110
:1006E700AF3D120991AF3E120991AB3FAA40A94114
:1006F70012000EAC06AD07AB3FAA40A94102088223
:060707008B428A43894485
:10070D0012000EEF2402FFE43EAD077545FDF546E0
:10071D008D47754801E4F54985424A85434B85442B
:10072D004CAF45120991AF46120991AF471209918D
:10073D00AF48120991AF49120991AB4AAA4BA94C86
:10074D0012000EAC06AD07AB4AAA4BA94C020882AB
:0308C000FD7C00BC
:0208C3008F4D57
:1008C500EDF47002ECF460127525FF7526077527A7
:1008D5005D854D288C298D2A800C7525FF75260789
:1008E500752764854D287B007A00794E1200827B3E
:0808F500007A00794E020707AA
:100B2900EF7F661208C0120657EF644F600512097D
:040B39004980F322DA
:100B3D00EF7F671208C0120657EF644F6005120968
:040B4D004980F322C6
:100A0000EFFD7C007F681208C3120657EF644F6049
:070A10000512094980F322E1
:100A1700EFFD7C007F691208C3120657EF644F6031
:070A27000512094980F322CA
:100A2E00EFFD7C007F6D1208C3120657EF644F6016
:070A3E000512094980F322B3
:100A4500EFFD7C007F6E1208C3120657EF644F60FE
:070A55000512094980F3229C
:100A5C00EFFD7C007F6F1208C3120657EF644F60E6
:070A6C000512094980F32285
:100A7300EFFD7C007F721208C3120657EF644F60CC
:070A83000512094980F3226E
:090BAE00AD07AC067F730208C319
:100A8A00AD07AC067F741208C3120657EF644F60B5
:070A9A000512094980F32257
:100AA100AD07AC067F761208C3120657EF644F609C
:070AB1000512094980F32240
:100AB800EFFD7C007F791208C3120657EF644F6080
:070AC8000512094980F32229
:100ACF00EFFD7C007F7A1208C3120657EF644F6068
:070ADF000512094980F32212
:100AE60074FFFDFC7F641208C3120657EF644F6063
:070AF6000512094980F322FB
:100800007F0A7E00120AA17F35120A2E7BFF7A072B
:100810007969E4FD1206AF120657EF644F600512C6
:10082000094980F37F34120A2E7BFF7A07798EE420
:10083000FD1206AF120657EF644F6005120949809A
:02084000F322A1
:03000000020506F0
:0C050600787FE4F6D8FD75816602054D93
:10038200E709F608DFFA8046E709F208DFFA803E5D
:1003920088828C83E709F0A3DFFA8032E309F6084A
:1003A200DFFA8078E309F208DFFA807088828C83B2
:1003B200E309F0A3DFFA806489828A83E0A3F60866
:1003C200DFFA805889828A83E0A3F208DFFA804C40
:1003D20080D280FA80C680D4806980F28033801017
:1003E20080A680EA809A80A880DA80E280CA803380
:1003F20089828A83ECFAE493A3C8C582C8CCC583F8
:10040200CCF0A3C8C582C8CCC583CCDFE9DEE780C7
:100412000D89828A83E493A3F608DFF9ECFAA9F046
:10042200EDFB2289828A83ECFAE0A3C8C582C8CC9C
:10043200C583CCF0A3C8C582C8CCC583CCDFEADEB5
:10044200E880DB89828A83E493A3F208DFF980CC17
:1004520088F0EF60010E4E60C388F0ED2402B40410
:100462000050B9F582EB2402B4040050AF232345B7
:0604720082239003D27307
:10047800BB010689828A83E0225002E722BBFE0282
:09048800E32289828A83E49322B5
:10049100BB010CE58229F582E5833AF583E0225020
:1004A10006E92582F8E622BBFE06E92582F8E2226A
:0D04B100E58229F582E5833AF583E4932284
:10002600E5312425F8E605312278223007027825C5
:10003600E475F0011204D00204782000EB7F2ED282
:10004600008018EF540F2490D43440D4FF30040BB2
:10005600EF24BFB41A0050032461FFE53260021595
:10006600320535E5357002053430070D7822E47522
:10007600F0011204D0EF0204BE0208FD7403D20799
:100086008003E4C207F5318B228A238924E4F53202
:10009600F534F535E53260077F2012006180F5758D
:1000A60033FFC201C200C202C203C205C206C208B1
:1000B60012002FFF700D3007057F00120072AF355A
:1000C600AE3422B4255FC2D5C20412002FFF24D05D
:1000D600B40A00501A75F00A783230D50508B6FF12
:1000E6000106C6A426F620D5047002D20380D924C0
:1000F600CFB41A00EF5004C2E5D204020272D20154
:1001060080C6D20080C0D20280BCD2D580BAD205C9
:1001160080B47F201200612002077401B5320040CE
:10012600F1120026FF12006102009AD208D2068060
:1001360095120026FB120026FA120026F94A4B7089
:100146000679437A037BFF20022EE532602A7E0081
:100156008E8275830012049160060EEE653370F090
:10016600C2D5EBC0E0EAC0E0E9C0E0EE1202B9D0C9
:10017600E0F9D0E0FAD0E0FB120478FF60AAEBC009
:10018600E0EAC0E0E9C0E0120061D0E02401F9D065
:10019600E03400FAD0E0FBE5330460DCD533D980E7
:1001A600877BFF7A0279B5D202809C79108002792A
:1001B60008C206C2088008D2D5790A8004790AC224
:1001C600D5E533047002F533E4FAFDFEFF1200268E
:1001D600FC7B08200113120026FD7B1030000A125A
:1001E6000026FE120026FF7B20EC3382D592D550E6
:1001F60013C3E43000069FFFE49EFEE42001039D46
:10020600FDE49CFCE4CBF8C201EC700CCFCECDCC67
:10021600E824F8F870F38017C3EF33FFEE33FEEDF2
:1002260033FDEC33FCEB33FB994002FB0FD8E9EBD3
:10023600300105F8D0E0C448B201C0E00AEC4D4EEA
:100246004F78207B0070C2EAB5330040BCC0E01294
:1002560002BBD0F0D0E0200104C4C0E0C4B201C0AB
:10026600F012004AD0F0D5F0EB02009A1204E00139
:10027600375301B15801084C01044201B54F01BD85
:0F0286004401BD49011D4301C35501A74601A70E
:100295004501A747036350010C2D01102E01332B97
:1002A500011423013120034C2A00CC480000012B06
:1002B5003F3F3F00790AA2D5200314300509B91044
:1002C500020404B9080104A2D52006025001042045
:1002D50002689202B532005034C0E07F2030031925
:1002E5007F30A20272067205500F120312C202C2BB
:1002F50006C205C2087F30800F300503E9C0E01251
:100305000061300503D0E0F9D0E0B532CC300517F7
:100315007F30B9100C1200617F583004077F788058
:1003250003B908031200613002057F2D0200617FC9
:10033500202008F87F2B2006F322920280CF286E1A
:10034500756C6C2900D2011200263001F8C20178C3
:100355003230D50108F60200CC2D50434958120021
:10036500262403B405004001E490035E9312005275
:0D037500743A120052D2037532040201B135
:10000E00E4FFFE120478600C0FEF70010E09E97028
:05001E00F20A80EF2250
:10051200020B8FE493A3F8E493A34003F68001F265
:1005220008DFF48029E493A3F85407240CC8C333EA
:10053200C4540F4420C8834004F456800146F6DFB9
:10054200E4800B0102040810204080900B74E47ECA
:10055200019360BCA3FF543F30E509541FFEE493AE
:10056200A360010ECF54C025E060A840B8E493A375
:10057200FAE493A3F8E493A3C8C582C8CAC583CAA0
:10058200F0A3C8C582C8CAC583CADFE9DEE780BE58
:010B83000071
:1004BE00BB010689828A83F0225002F722BBFE011D
:0204CE00F32217
:1004D000FAE6FB0808E6F925F0F618E6CA3AF6222D
:1004E000D083D082F8E4937012740193700DA3A3AB
:1004F00093F8740193F5828883E4737402936860BF
:06050000EFA3A3A380DFBE
:1008FD00EFB40A07740D120908740A309811A899FB
:10090D00B8130CC2983098FDA899C298B811F6305A
:07091D0099FDC299F5992232
:00000001FF
