:0300200025640054
:0606640002232000C10981
:0E06440000007F177ECD7D78DDFEDEFCDFFA44
:010652002285
:10000E005389F0758ACD758CD4C28DD28CD2AFD275
:02001E00A92215
:0800030012062E12049C80FB82
:03002300020526AD
:10052600C0E0C0F0C083C082C0D0309860C2988559
:100536009929C2ACE52924CFB4070050469005514D
:1005460075F003A4C58325F0C5837302056602050D
:100556006B02057002057502057A02057F020584A5
:100566007590FE801E7590FD80197590FB80147540
:1005760090F7800F7590EF800A7590DF8005759073
:10058600BFD209D2AC8529993099FDC299D0D0D075
:0805960082D083D0F0D0E032E6
:090653007B007A0079230205F214
:10049C00E5284527600302052512059E8F22E526D7
:1004AC0065225522F52585222624FE601814601D30
:1004BC0014602214602714602C2405704B7590FE78
:1004CC00752A0180267590FD752A02801E7590FB99
:1004DC00752A0380167590F7752A04800E7590EFB7
:1004EC00752A0580067590DF752A06750BFF750C4D
:1004FC0000750D20750E00852A0F7B007A0079237C
:10050C001200821206538002C2A230090CE52A1492
:0A051C007005D2A2120644C20922A3
:03000B00020617D3
:10061700C0E00528E52870020527640A452770040D
:07062700F527F528D0E032B1
:10059E002080047F0180252081047F02801E20821E
:1005AE00047F0380172083047F0480102084047F3F
:0C05BE000580092085047F068002E4FF10
:0105CA00220E
:10062E00759850E4F587758920D2AFD2AC758BFDE5
:06063E00758DFDD28E2235
:08065C008F993099FDC299222B
:1005F2008B088A09890AAB08AA09A90A1203826030
:1006020013050AE50A7002050914F9120382FF12A2
:05061200065C80E222FD
:03000000020410E7
:0C041000787FE4F6D8FD75812A020457BD
:10038200BB010689828A83E0225002E722BBFE0279
:09039200E32289828A83E49322AC
:10002600E517240BF8E60517227808300702780B47
:10003600E475F0011203DA0203822000EB7F2ED270
:10004600008018EF540F2490D43440D4FF30040BB2
:10005600EF24BFB41A0050032461FFE518600215AF
:1000660018051BE51B7002051A30070D7808E475A4
:10007600F0011203DAEF0203C80205CB7403D207BC
:100086008003E4C207F5178B088A09890AE4F51884
:10009600F51AF51BE51860077F2012006180F575DB
:1000A60019FFC201C200C202C203C205C206C208CB
:1000B60012002FFF700D3007057F00120072AF1B74
:1000C600AE1A22B4255FC2D5C20412002FFF24D077
:1000D600B40A00501A75F00A781830D50508B6FF2C
:1000E6000106C6A426F620D5047002D20380D924C0
:1000F600CFB41A00EF5004C2E5D204020272D20154
:1001060080C6D20080C0D20280BCD2D580BAD205C9
:1001160080B47F201200612002077401B5180040E8
:10012600F1120026FF12006102009AD208D2068060
:1001360095120026FB120026FA120026F94A4B7089
:100146000679437A037BFF20022EE518602A7E009B
:100156008E8275830012039B60060EEE651970F0A1
:10016600C2D5EBC0E0EAC0E0E9C0E0EE1202B9D0C9
:10017600E0F9D0E0FAD0E0FB120382FF60AAEBC000
:10018600E0EAC0E0E9C0E0120061D0E02401F9D065
:10019600E03400FAD0E0FBE5190460DCD519D9801B
:1001A600877BFF7A0279B5D202809C79108002792A
:1001B60008C206C2088008D2D5790A8004790AC224
:1001C600D5E519047002F519E4FAFDFEFF120026C2
:1001D600FC7B08200113120026FD7B1030000A125A
:1001E6000026FE120026FF7B20EC3382D592D550E6
:1001F60013C3E43000069FFFE49EFEE42001039D46
:10020600FDE49CFCE4CBF8C201EC700CCFCECDCC67
:10021600E824F8F870F38017C3EF33FFEE33FEEDF2
:1002260033FDEC33FCEB33FB994002FB0FD8E9EBD3
:10023600300105F8D0E0C448B201C0E00AEC4D4EEA
:100246004F78207B0070C2EAB5190040BCC0E012AE
:1002560002BBD0F0D0E0200104C4C0E0C4B201C0AB
:10026600F012004AD0F0D5F0EB02009A1203EA0130
:10027600375301B15801084C01044201B54F01BD85
:0F0286004401BD49011D4301C35501A74601A70E
:100295004501A747036350010C2D01102E01332B97
:1002A500011423013120034C2A00CC480000012B06
:1002B5003F3F3F00790AA2D5200314300509B91044
:1002C500020404B9080104A2D52006025001042045
:1002D50002689202B518005034C0E07F203003193F
:1002E5007F30A20272067205500F120312C202C2BB
:1002F50006C205C2087F30800F300503E9C0E01251
:100305000061300503D0E0F9D0E0B518CC30051711
:100315007F30B9100C1200617F583004077F788058
:1003250003B908031200613002057F2D0200617FC9
:10033500202008F87F2B2006F322920280CF286E1A
:10034500756C6C2900D2011200263001F8C20178C3
:100355001830D50108F60200CC2D5043495812003B
:10036500262403B405004001E490035E9312005275
:0D037500743A120052D2037518040201B14F
:10041C00020003E493A3F8E493A34003F68001F2F3
:10042C0008DFF48029E493A3F85407240CC8C333E1
:10043C00C4540F4420C8834004F456800146F6DFB0
:10044C00E4800B0102040810204080900664E47ED6
:10045C00019360BCA3FF543F30E509541FFEE493A5
:10046C00A360010ECF54C025E060A840B8E493A36C
:10047C00FAE493A3F8E493A3C8C582C8CAC583CA97
:10048C00F0A3C8C582C8CAC583CADFE9DEE780BE4F
:01066A00008F
:10039B00BB010CE58229F582E5833AF583E0225017
:1003AB0006E92582F8E622BBFE06E92582F8E22261
:0D03BB00E58229F582E5833AF583E493227B
:1003C800BB010689828A83F0225002F722BBFE0114
:0203D800F3220E
:1003DA00FAE6FB0808E6F925F0F618E6CA3AF62224
:1003EA00D083D082F8E4937012740193700DA3A3A2
:1003FA0093F8740193F5828883E4737402936860B6
:06040A00EFA3A3A380DFB5
:1005CB00EFB40A07740D1205D6740A309811A89966
:1005DB00B8130CC2983098FDA899C298B811F63090
:0705EB0099FDC299F5992268
:00000001FF
