:1004E300BBB6D3ADC0B4B5BDB9F0C1D6B5E7D7D3AC
:1004F300BFC6BCBCB4F3D1A7D0C5CFA2BFC6BCBCDA
:10050300D1A7D4BA00CED2D7F0B9F3B5C4B9CBBF13
:10051300CDC7EBCECAC4FAD0E8D2AAB5E3CAB2C3F8
:10052300B4C4D800D2BBBAC5CFE4C3C5D2D1BFAA25
:10053300C6F4C7EBC8A1CDEACEEFC6B7B9D8BAC3E4
:10054300CFE4C3C5D0BBD0BB00B6FEBAC5CFE4C3AE
:10055300C5D2D1BFAAC6F4C7EBC8A1CDEACEEFC6B8
:10056300B7B9D8BAC3CFE4C3C5D0BBD0BB005B25F2
:0E0573006325645D005B25635D00FD000121D2
:100581001208517F351208B27A0479E31205FC1280
:100591000658EF644F60051207E880F37F341208B4
:1005A100B27A0579081205FC120658EF644F60050E
:1005B1001207E880F320B1201208517F351208B2EA
:1005C1007BFF7A057927E4FD120600120658EF64D5
:1005D1004F60E21207E880F320B0DA1208517F344D
:1005E1001208B27BFF7A05794CE4FD12060012066F
:0B05F10058EF644F60BF1207E880F372
:0407E8007F0A7E0006
:1007EC00D3EF9400EE6480948040147D967C00EDF1
:0F07FC001D70011CED4C70F7EF1F70E41E80E1C3
:01080B0022CA
:10096A00D2A000D2A10000000000C2A00000000036
:06097A0000C2A1000022F2
:1009BD00C2A000D2A10000000000D2A000000000E3
:0109CD002207
:10070600E4FEEFA806088002C333D8FC30E704D223
:10071600A08002C2A000D2A10000000000C2A10E6B
:10072600BE08DF00000000D2A000000000D2A10039
:0F073600000030A004C2098002D209C2A1000055
:010745002291
:10080C00E4FFFED2A000C2A10000000000D2A100B3
:10081C0000EF25E0FF30A0010F00000EBE08E6C27D
:03082C00A1000028
:01082F0022A6
:10086C00200004C2A08002D2A0000000D2A100008F
:08087C00000000C2A1000022EF
:10083000AD0712096A7F60120706200902C322AFC2
:1008400005120706200902C3221209BD1207E8D3C8
:010850002285
:0A0746008B388A39893A8C3B8D3CD0
:10075000E4F53DF53EC3E53E953CE53B6480F8E5B8
:100760003D648098501DAB38AA39A93A853E8285F0
:100770003D83120455FF120830053EE53E70D60554
:030780003D80D2E7
:010783002253
:100658007522FF7523007524007525FF78267C0018
:100668007D007BFF7A05797D7E007F0412042F7B55
:10067800007A0079267D047C001207467F647E009C
:100688001207EC12096A7F611207062009037F002E
:10069800227F057E001207EC12080C8F22D200126E
:0706A800086C1209BDAF222E
:0106AF002228
:0405FC007BFFE4FDA0
:080600008D258B228A23892439
:10060800120980EF2402FFE43EAD077526FDF527A9
:100618008D2875290185252A85222B85232C85245B
:100628002DAF26120830AF27120830AF2812083035
:10063800AF29120830AF2A120830AB2BAA2CA92DEB
:10064800120980AC06AD07AB2BAA2CA92D020746D0
:0606B0008B2D8A2E892F1C
:1006B600120980EF2402FFE43EAD077530FDF531E7
:1006C6008D32753301E4F534852D35852E36852F2B
:1006D60037AF30120830AF31120830AF321208305F
:1006E600AF33120830AF34120830AB35AA36A9370B
:1006F600120980AC06AD07AB35AA36A93702074604
:03078400FD7C00F9
:020787008F22BF
:10078900EDF47002ECF460127530FF7531057532C5
:10079900718522338C348D35800C7530FF753105A8
:1007A9007532788522337B007A00792312005F7BCA
:0807B900007A0079230206B06A
:10099500EF7F66120784120658EF644F6005120751
:0409A500E880F322D1
:1009A900EF7F67120784120658EF644F600512073C
:0409B900E880F322BD
:10088400EFFD7C007F68120787120658EF644F6003
:07089400051207E880F322C2
:10089B00EFFD7C007F69120787120658EF644F60EB
:0708AB00051207E880F322AB
:1008B200EFFD7C007F6D120787120658EF644F60D0
:0708C200051207E880F32294
:1008C900EFFD7C007F6E120787120658EF644F60B8
:0708D900051207E880F3227D
:1008E000EFFD7C007F6F120787120658EF644F60A0
:0708F000051207E880F32266
:1008F700EFFD7C007F72120787120658EF644F6086
:07090700051207E880F3224E
:0909DA00AD07AC067F730207872C
:10090E00AD07AC067F74120787120658EF644F606E
:07091E00051207E880F32237
:040851007F0A7E009C
:10085500AD07AC067F76120787120658EF644F6026
:07086500051207E880F322F1
:10092500EFFD7C007F79120787120658EF644F6050
:07093500051207E880F32220
:10093C00EFFD7C007F7A120787120658EF644F6038
:07094C00051207E880F32209
:1009530074FFFDFC7F64120787120658EF644F6033
:07096300051207E880F322F2
:030000000209CE24
:0C09CE00787FE4F6D8FD758140020581B9
:10035F00E709F608DFFA8046E709F208DFFA803E80
:10036F0088828C83E709F0A3DFFA8032E309F6086D
:10037F00DFFA8078E309F208DFFA807088828C83D5
:10038F00E309F0A3DFFA806489828A83E0A3F60889
:10039F00DFFA805889828A83E0A3F208DFFA804C63
:1003AF0080D280FA80C680D4806980F2803380103A
:1003BF0080A680EA809A80A880DA80E280CA8033A3
:1003CF0089828A83ECFAE493A3C8C582C8CCC5831B
:1003DF00CCF0A3C8C582C8CCC583CCDFE9DEE780EB
:1003EF000D89828A83E493A3F608DFF9ECFAA9F06A
:1003FF00EDFB2289828A83ECFAE0A3C8C582C8CCC0
:10040F00C583CCF0A3C8C582C8CCC583CCDFEADED8
:10041F00E880DB89828A83E493A3F208DFF980CC3A
:10042F0088F0EF60010E4E60C388F0ED2402B40433
:10043F000050B9F582EB2402B4040050AF232345DA
:06044F0082239003AF734D
:10045500BB010CE58229F582E5833AF583E022505C
:1004650006E92582F8E622BBFE06E92582F8E222A6
:0D047500E58229F582E5833AF583E49322C0
:10000300E53C2430F8E6053C22782D3007027830B1
:10001300E475F0011204AD0204822000EB7F2ED2BE
:10002300008018EF540F2490D43440D4FF30040BD5
:10003300EF24BFB41A0050032461FFE53D600215AD
:100043003D0540E5407002053F30070D782DE4750E
:10005300F0011204ADEF02049B0207C17403D2073F
:100063008003E4C207F53C8B2D8A2E892FE4F53DEE
:10007300F53FF540E53D60077F2012003E80F575B2
:100083003EFFC201C200C202C203C205C206C208C9
:1000930012000CFF700D3007057F0012004FAF40B8
:1000A300AE3F22B4255FC2D5C20412000CFF24D098
:1000B300B40A00501A75F00A783D30D50508B6FF2A
:1000C3000106C6A426F620D5047002D20380D924E3
:1000D300CFB41A00EF5004C2E5D20402024FD2019A
:1000E30080C6D20080C0D20280BCD2D580BAD205ED
:1000F30080B47F2012003E2002077401B53D00400A
:10010300F1120003FF12003E020077D208D20680EC
:1001130095120003FB120003FA120003F94A4B7015
:100123000679207A037BFF20022EE53D602A7E00BC
:100133008E8275830012045560060EEE653E70F0E4
:10014300C2D5EBC0E0EAC0E0E9C0E0EE120296D00F
:10015300E0F9D0E0FAD0E0FB120482FF60AAEBC022
:10016300E0EAC0E0E9C0E012003ED0E02401F9D0AB
:10017300E03400FAD0E0FBE53E0460DCD53ED980F4
:10018300877BFF7A027992D202809C791080027970
:1001930008C206C2088008D2D5790A8004790AC247
:1001A300D5E53E047002F53EE4FAFDFEFF120003BE
:1001B300FC7B08200113120003FD7B1030000A12A0
:1001C3000003FE120003FF7B20EC3382D592D5504F
:1001D30013C3E43000069FFFE49EFEE42001039D69
:1001E300FDE49CFCE4CBF8C201EC700CCFCECDCC8B
:1001F300E824F8F870F38017C3EF33FFEE33FEED16
:1002030033FDEC33FCEB33FB994002FB0FD8E9EBF6
:10021300300105F8D0E0C448B201C0E00AEC4D4E0D
:100223004F78207B0070C2EAB53E0040BCC0E012AC
:100233000298D0F0D0E0200104C4C0E0C4B201C0F1
:10024300F0120027D0F0D5F0EB0200771204BD01C5
:100253001453018E5800E54C00E14201924F019A7C
:0F02630044019A4900FA4301A0550184460184E1
:100272004501844703405000E92D00ED2E01102B6B
:1002820000F123010E2003292A00A94800000108D9
:100292003F3F3F00790AA2D5200314300509B91067
:1002A200020404B9080104A2D52006025001042068
:1002B20002689202B53D005034C0E07F203003193D
:1002C2007F30A20272067205500F1202EFC202C202
:1002D20006C205C2087F30800F300503E9C0E01274
:1002E200003E300503D0E0F9D0E0B53DCC30051733
:1002F2007F30B9100C12003E7F583004077F78809F
:1003020003B9080312003E3002057F2D02003E7F32
:10031200202008F87F2B2006F322920280CF286E3D
:10032200756C6C2900D2011200033001F8C2017809
:100332003D30D50108F60200A92D5043495812005C
:10034200032403B405004001E490033B9312002F01
:0D035200743A12002FD203753D0402018E93
:10098000E4FFFE120482600C0FEF70010E09E970A3
:05099000F20A80EF22D5
:10048200BB010689828A83E0225002E722BBFE0278
:09049200E32289828A83E49322AB
:10049B00BB010689828A83F0225002F722BBFE0140
:0204AB00F3223A
:1004AD00FAE6FB0808E6F925F0F618E6CA3AF62250
:1004BD00D083D082F8E4937012740193700DA3A3CE
:1004CD0093F8740193F5828883E4737402936860E2
:0604DD00EFA3A3A380DFE2
:1007C100EFB40A07740D1207CC740A309811A89976
:1007D100B8130CC2983098FDA899C298B811F63098
:0707E10099FDC299F5992270
:00000001FF
