:100642005B256325645D005B25635D00BBB6D3ADAE
:10065200C0B4B5BDB9F0C1D6B5E7D7D3BFC6BCBC2F
:10066200B4F3D1A7D0C5CFA2BFC6BCBCD1A7D4BA60
:1006720000CED2D7F0B9F3B5C4B9CBBFCDC7EBCE5C
:10068200CAC4FAD0E8D2AAB5E3CAB2C3B4C4D80085
:04069200FD00012145
:040804007F0A7E00E9
:10080800D3EF9400EE6480948040147D967C00EDD4
:0F0818001D70011CED4C70F7EF1F70E41E80E1A6
:0108270022AE
:10098200D2A000D2A10000000000C2A0000000001E
:0609920000C2A1000022DA
:1009D500C2A000D2A10000000000D2A000000000CB
:0109E50022EF
:10072200E4FEEFA806088002C333D8FC30E704D207
:10073200A08002C2A000D2A10000000000C2A10E4F
:10074200BE08DF00000000D2A000000000D2A1001D
:0F075200000030A004C2098002D209C2A1000039
:010761002275
:10082800E4FFFED2A000C2A10000000000D2A10097
:1008380000EF25E0FF30A0010F00000EBE08E6C261
:03084800A100000C
:01084B00228A
:10086D00200004C2A08002D2A0000000D2A100008E
:08087D00000000C2A1000022EE
:10084C00AD071209827F60120722200902C322AF72
:10085C0005120722200902C3221209D5120804D35B
:01086C002269
:0A0762008B388A39893A8C3B8D3CB4
:10076C00E4F53DF53EC3E53E953CE53B6480F8E59C
:10077C003D648098501DAB38AA39A93A853E8285D4
:10078C003D83120455FF12084C053EE53E70D6051C
:03079C003D80D2CB
:01079F002237
:10053C007522FF7523007524007525FF78267C0035
:10054C007D007BFF7A0679927E007F0412042F7B5C
:10055C00007A0079267D047C001207627F647E009D
:10056C001208081209827F611207222009037F00FA
:10057C00227F057E001208081208288F22D2001252
:07058C00086D1209D5AF2232
:010593002245
:080594008D258B228A238924A6
:10059C00120998EF2402FFE43EAD077526FDF527FE
:1005AC008D2875290185252A85222B85232C8524C8
:1005BC002DAF2612084CAF2712084CAF2812084C4E
:1005CC00AF2912084CAF2A12084CAB2BAA2CA92D20
:1005DC00120998AC06AD07AB2BAA2CA92D02076209
:0605EC008B2D8A2E892FE1
:1005F200120998EF2402FFE43EAD077530FDF53194
:100602008D32753301E4F534852D35852E36852FEF
:1006120037AF3012084CAF3112084CAF3212084CCF
:10062200AF3312084CAF3412084CAB35AA36A93797
:10063200120998AC06AD07AB35AA36A93702076294
:0307A000FD7C00DD
:0207A3008F22A3
:1007A500EDF47002ECF460127530FF7531067532A8
:1007B500428522338C348D35800C7530FF753106BA
:1007C5007532498522337B007A00792312005F7BDD
:0807D500007A0079230205EC13
:1009AD00EF7F661207A012053CEF644F6005120839
:0409BD000480F3229D
:1009C100EF7F671207A012053CEF644F6005120824
:0409D1000480F32289
:10088500EFFD7C007F681207A312053CEF644F6003
:070895000512080480F322A4
:10089C00EFFD7C007F691207A312053CEF644F60EB
:0708AC000512080480F3228D
:1008B300EFFD7C007F6D1207A312053CEF644F60D0
:0708C3000512080480F32276
:1008CA00EFFD7C007F6E1207A312053CEF644F60B8
:0708DA000512080480F3225F
:1008E100EFFD7C007F6F1207A312053CEF644F60A0
:0708F1000512080480F32248
:1008F800EFFD7C007F721207A312053CEF644F6086
:070908000512080480F32230
:0909F200AD07AC067F730207A3F8
:10090F00AD07AC067F741207A312053CEF644F606E
:07091F000512080480F32219
:10092600AD07AC067F761207A312053CEF644F6055
:070936000512080480F32202
:10093D00EFFD7C007F791207A312053CEF644F6039
:07094D000512080480F322EB
:10095400EFFD7C007F7A1207A312053CEF644F6021
:070964000512080480F322D4
:10096B0074FFFDFC7F641207A312053CEF644F601C
:07097B000512080480F322BD
:1006E0007F0A7E001209267F351208B37BFF7A0647
:1006F000794EE4FD12059412053CEF644F6005123B
:10070000080480F37F341208B37BFF7A067973E420
:10071000FD12059412053CEF644F60051208048039
:02072000F322C2
:10069600D2BBBAC5CFE4C3C5D2D1BFAAC6F4C7EB95
:1006A600C8A1CDEACEEFC6B7B9D8BAC3CFE4C3C5A1
:1006B600D0BBD0BB00B6FEBAC5CFE4C3C5D2D1BF4E
:1006C600AAC6F4C7EBC8A1CDEACEEFC6B7B9D8BA69
:0A06D600C3CFE4C3C5D0BBD0BB0006
:1004E3001206E020B1287F0A7E001209267F35120A
:1004F30008B37BFF7A067996E4FD12059412053C56
:10050300EF644F60DE7F0A7E0012080880EF20B0A0
:10051300D27F0A7E001209267F341208B37BFF7A4A
:100523000679BBE4FD12059412053CEF644F60B3FA
:090533007F0A7E0012080880EF27
:030000000209E60C
:0C09E600787FE4F6D8FD7581400204E340
:10035F00E709F608DFFA8046E709F208DFFA803E80
:10036F0088828C83E709F0A3DFFA8032E309F6086D
:10037F00DFFA8078E309F208DFFA807088828C83D5
:10038F00E309F0A3DFFA806489828A83E0A3F60889
:10039F00DFFA805889828A83E0A3F208DFFA804C63
:1003AF0080D280FA80C680D4806980F2803380103A
:1003BF0080A680EA809A80A880DA80E280CA8033A3
:1003CF0089828A83ECFAE493A3C8C582C8CCC5831B
:1003DF00CCF0A3C8C582C8CCC583CCDFE9DEE780EB
:1003EF000D89828A83E493A3F608DFF9ECFAA9F06A
:1003FF00EDFB2289828A83ECFAE0A3C8C582C8CCC0
:10040F00C583CCF0A3C8C582C8CCC583CCDFEADED8
:10041F00E880DB89828A83E493A3F208DFF980CC3A
:10042F0088F0EF60010E4E60C388F0ED2402B40433
:10043F000050B9F582EB2402B4040050AF232345DA
:06044F0082239003AF734D
:10045500BB010CE58229F582E5833AF583E022505C
:1004650006E92582F8E622BBFE06E92582F8E222A6
:0D047500E58229F582E5833AF583E49322C0
:10000300E53C2430F8E6053C22782D3007027830B1
:10001300E475F0011204AD0204822000EB7F2ED2BE
:10002300008018EF540F2490D43440D4FF30040BD5
:10003300EF24BFB41A0050032461FFE53D600215AD
:100043003D0540E5407002053F30070D782DE4750E
:10005300F0011204ADEF02049B0207DD7403D20723
:100063008003E4C207F53C8B2D8A2E892FE4F53DEE
:10007300F53FF540E53D60077F2012003E80F575B2
:100083003EFFC201C200C202C203C205C206C208C9
:1000930012000CFF700D3007057F0012004FAF40B8
:1000A300AE3F22B4255FC2D5C20412000CFF24D098
:1000B300B40A00501A75F00A783D30D50508B6FF2A
:1000C3000106C6A426F620D5047002D20380D924E3
:1000D300CFB41A00EF5004C2E5D20402024FD2019A
:1000E30080C6D20080C0D20280BCD2D580BAD205ED
:1000F30080B47F2012003E2002077401B53D00400A
:10010300F1120003FF12003E020077D208D20680EC
:1001130095120003FB120003FA120003F94A4B7015
:100123000679207A037BFF20022EE53D602A7E00BC
:100133008E8275830012045560060EEE653E70F0E4
:10014300C2D5EBC0E0EAC0E0E9C0E0EE120296D00F
:10015300E0F9D0E0FAD0E0FB120482FF60AAEBC022
:10016300E0EAC0E0E9C0E012003ED0E02401F9D0AB
:10017300E03400FAD0E0FBE53E0460DCD53ED980F4
:10018300877BFF7A027992D202809C791080027970
:1001930008C206C2088008D2D5790A8004790AC247
:1001A300D5E53E047002F53EE4FAFDFEFF120003BE
:1001B300FC7B08200113120003FD7B1030000A12A0
:1001C3000003FE120003FF7B20EC3382D592D5504F
:1001D30013C3E43000069FFFE49EFEE42001039D69
:1001E300FDE49CFCE4CBF8C201EC700CCFCECDCC8B
:1001F300E824F8F870F38017C3EF33FFEE33FEED16
:1002030033FDEC33FCEB33FB994002FB0FD8E9EBF6
:10021300300105F8D0E0C448B201C0E00AEC4D4E0D
:100223004F78207B0070C2EAB53E0040BCC0E012AC
:100233000298D0F0D0E0200104C4C0E0C4B201C0F1
:10024300F0120027D0F0D5F0EB0200771204BD01C5
:100253001453018E5800E54C00E14201924F019A7C
:0F02630044019A4900FA4301A0550184460184E1
:100272004501844703405000E92D00ED2E01102B6B
:1002820000F123010E2003292A00A94800000108D9
:100292003F3F3F00790AA2D5200314300509B91067
:1002A200020404B9080104A2D52006025001042068
:1002B20002689202B53D005034C0E07F203003193D
:1002C2007F30A20272067205500F1202EFC202C202
:1002D20006C205C2087F30800F300503E9C0E01274
:1002E200003E300503D0E0F9D0E0B53DCC30051733
:1002F2007F30B9100C12003E7F583004077F78809F
:1003020003B9080312003E3002057F2D02003E7F32
:10031200202008F87F2B2006F322920280CF286E3D
:10032200756C6C2900D2011200033001F8C2017809
:100332003D30D50108F60200A92D5043495812005C
:10034200032403B405004001E490033B9312002F01
:0D035200743A12002FD203753D0402018E93
:10099800E4FFFE120482600C0FEF70010E09E9708B
:0509A800F20A80EF22BD
:10048200BB010689828A83E0225002E722BBFE0278
:09049200E32289828A83E49322AB
:10049B00BB010689828A83F0225002F722BBFE0140
:0204AB00F3223A
:1004AD00FAE6FB0808E6F925F0F618E6CA3AF62250
:1004BD00D083D082F8E4937012740193700DA3A3CE
:1004CD0093F8740193F5828883E4737402936860E2
:0604DD00EFA3A3A380DFE2
:1007DD00EFB40A07740D1207E8740A309811A8993E
:1007ED00B8130CC2983098FDA899C298B811F6307C
:0707FD0099FDC299F5992254
:00000001FF
