:1004E300C4FAD1A1D4F1C1CBD2BBBAC5C9CCC6B76A
:1004F30000C4FAD1A1D4F1C1CBB6FEBAC5C9CCC6EA
:10050300B700C4FAD1A1D4F1C1CBC8FEBAC5C9CCD6
:10051300C6B700C4FAD1A1D4F1C1CBCBC4BAC5C903
:10052300CCC6B700C4FAD1A1D4F1C1CBCEE5BAC5CC
:10053300C9CCC6B700C4FAD1A1D4F1C1CBC1F9BAB1
:10054300C5C9CCC6B700D2BBBAC5C3C5CBF8D2D1D7
:10055300B4F2BFAAA3ACC7EBC8A1D7DFC9CCC6B757
:1005630000B6FEBAC5C3C5CBF8D2D1B4F2BFAAA3B5
:10057300ACC7EBC8A1D7DFC9CCC6B700C8FEBAC5A4
:10058300C3C5CBF8D2D1B4F2BFAAA3ACC7EBC8A101
:10059300D7DFC9CCC6B700CBC4BAC5C3C5CBF8D265
:1005A300D1B4F2BFAAA3ACC7EBC8A1D7DFC9CCC6ED
:1005B300B700CEE5BAC5C3C5CBF8D2D1B4F2BFAA52
:1005C300A3ACC7EBC8A1D7DFC9CCC6B700C1F9BA82
:1005D300C5C3C5CBF8D2D1B4F2BFAAA3ACC7EBC88D
:1005E300A1D7DFC9CCC6B700C8A1D7DFC9CCC6B76E
:0D05F300BAF3C7EBB9D8BAC3C3C5CBF80043
:080B780012060012067480F859
:0E0B540000007F167E037DE3DDFEDEFCDFFA8F
:010B62002270
:1006000012089F8F08E50A65085508F50985080A4C
:1006100024FE601B14602314602B14603314603BB1
:10062000240570437590FE7BFF7A0479E38035756D
:1006300090FD7BFF7A0479F4802A7590FB7BFF7A2A
:10064000057905801F7590F77BFF7A057916801470
:100650007590EF7BFF7A05792780097590DF7BFF26
:100660007A0579380208CCC2A7C2A6C2A5C2A4C224
:04067000A3C2A2225D
:10067400E50924FE601D14602B14603514603F14DA
:10068400604924057053D2A2120B547BFF7A05797A
:1006940049800BD2A3120B547BFF7A0579641208AC
:1006A400CC020B30D2A4120B547BFF7A05797F80E5
:1006B40025D2A5120B547BFF7A05799A8018D2A60D
:1006C400120B547BFF7A0579B5800BD2A7120B5419
:0A06D4007BFF7A0579D01208CC22D2
:100B300020970C7BFF7A0579EB1208CC020B5475D9
:030B400090FF2201
:100966005B256325645D005B25635D00C7EBCECA2E
:10097600C4FAD0E8D2AAB5E3CAB2C3B4C4D800FD5B
:030986000001214C
:04091E007F0A7E00CE
:10092200D3EF9400EE6480948040147D967C00EDB9
:0F0932001D70011CED4C70F7EF1F70E41E80E18B
:010941002293
:100ADD00D2A000D2A10000000000C2A000000000C2
:060AED0000C2A10000227E
:100B4300C2A000D2A10000000000D2A0000000005B
:010B5300227F
:1007E400E4FEEFA806088002C333D8FC30E704D245
:1007F400A08002C2A000D2A10000000000C2A10E8D
:10080400BE08DF00000000D2A000000000D2A1005A
:0F081400000030A004C2098002D209C2A1000076
:0108230022B2
:10094200E4FFFED2A000C2A10000000000D2A1007C
:1009520000EF25E0FF30A0010F00000EBE08E6C246
:03096200A10000F1
:01096500226F
:1009C800200004C2A08002D2A0000000D2A1000032
:0809D800000000C2A100002292
:10098900AD07120ADD7F601207E4200902C322AF16
:10099900051207E4200902C322120B4312091ED3D0
:0109A900222B
:0A0824008B3B8A3C893D8C3E8D3FE2
:10082E00E4F540F541C3E541953FE53E6480F8E5CA
:10083E0040648098501DAB3BAA3CA93D8541828502
:10084E004083120455FF1209890541E54170D60512
:03085E004080D205
:010861002274
:1006DE007525FF7526007527007528FF78297C0083
:1006EE007D007BFF7A0979857E007F0412042F7BC3
:1006FE00007A0079297D047C001208247F647E0034
:10070E00120922120ADD7F611207E42009037F001D
:10071E00227F057E001209221209428F25D2001275
:07072E0009C8120B43AF25BF
:0107350022A1
:080736008D288B258A268927F6
:10073E00120AF3EF2402FFE43EAD077529FDF52AF8
:10074E008D2B752C0185282D85252E85262F852709
:10075E0030AF29120989AF2A120989AF2B120989E4
:10076E00AF2C120989AF2D120989AB2EAA2FA930F1
:10077E00120AF3AC06AD07AB2EAA2FA9300208243D
:06078E008B308A31893234
:10079400120AF3EF2402FFE43EAD077533FDF5348E
:1007A4008D35753601E4F537853038853139853234
:1007B4003AAF33120989AF34120989AF3512098966
:1007C400AF36120989AF37120989AB38AA39A93A69
:1007D400120AF3AC06AD07AB38AA39A93A020824C9
:03086200FD7C001A
:020865008F25DD
:10086700EDF47002ECF460127533FF7534097535D9
:10087700668525368C378D38800C7533FF753409BE
:1008870075356D8525367B007A00792612005F7BEA
:08089700007A00792602078EA9
:100B0800EF7F661208621206DEEF644F6005120975
:040B18001E80F32226
:100B1C00EF7F671208621206DEEF644F6005120960
:040B2C001E80F32212
:1009E000EFFD7C007F681208651206DEEF644F6041
:0709F0000512091E80F3222D
:1009F700EFFD7C007F691208651206DEEF644F6029
:070A07000512091E80F32215
:100A0E00EFFD7C007F6D1208651206DEEF644F600D
:070A1E000512091E80F322FE
:100A2500EFFD7C007F6E1208651206DEEF644F60F5
:070A35000512091E80F322E7
:100A3C00EFFD7C007F6F1208651206DEEF644F60DD
:070A4C000512091E80F322D0
:100A5300EFFD7C007F721208651206DEEF644F60C3
:070A63000512091E80F322B9
:090B6F00AD07AC067F73020865B6
:100A6A00AD07AC067F741208651206DEEF644F60AC
:070A7A000512091E80F322A2
:100A8100AD07AC067F761208651206DEEF644F6093
:070A91000512091E80F3228B
:100A9800EFFD7C007F791208651206DEEF644F6077
:070AA8000512091E80F32274
:100AAF00EFFD7C007F7A1208651206DEEF644F605F
:070ABF000512091E80F3225D
:100AC60074FFFDFC7F641208651206DEEF644F605A
:070AD6000512091E80F32246
:1009AA007F34120A0E7BFF7A097972E4FD12073648
:0E09BA001206DEEF644F600512091E80F32264
:1008CC008B228A2389247F0A7E00120A817F3412AC
:1008DC000A0EAB22AA23A924E4FD1207361206DE67
:0B08EC00EF644F600512091E80F3222C
:10089F002080047F0180252081047F02801E20821A
:1008AF00047F0380172083047F0480102084047F3B
:0C08BF000580092085047F068002E4FF0C
:0108CB00220A
:03000000020B638D
:0C0B6300787FE4F6D8FD758143020B7822
:10035F00E709F608DFFA8046E709F208DFFA803E80
:10036F0088828C83E709F0A3DFFA8032E309F6086D
:10037F00DFFA8078E309F208DFFA807088828C83D5
:10038F00E309F0A3DFFA806489828A83E0A3F60889
:10039F00DFFA805889828A83E0A3F208DFFA804C63
:1003AF0080D280FA80C680D4806980F2803380103A
:1003BF0080A680EA809A80A880DA80E280CA8033A3
:1003CF0089828A83ECFAE493A3C8C582C8CCC5831B
:1003DF00CCF0A3C8C582C8CCC583CCDFE9DEE780EB
:1003EF000D89828A83E493A3F608DFF9ECFAA9F06A
:1003FF00EDFB2289828A83ECFAE0A3C8C582C8CCC0
:10040F00C583CCF0A3C8C582C8CCC583CCDFEADED8
:10041F00E880DB89828A83E493A3F208DFF980CC3A
:10042F0088F0EF60010E4E60C388F0ED2402B40433
:10043F000050B9F582EB2402B4040050AF232345DA
:06044F0082239003AF734D
:10045500BB010CE58229F582E5833AF583E022505C
:1004650006E92582F8E622BBFE06E92582F8E222A6
:0D047500E58229F582E5833AF583E49322C0
:10000300E53F2433F8E6053F2278303007027833A2
:10001300E475F0011204AD0204822000EB7F2ED2BE
:10002300008018EF540F2490D43440D4FF30040BD5
:10003300EF24BFB41A0050032461FFE540600215AA
:10004300400543E5437002054230070D7830E475FF
:10005300F0011204ADEF02049B0208F77403D20708
:100063008003E4C207F53F8B308A318932E4F540DF
:10007300F542F543E54060077F2012003E80F575A9
:1000830041FFC201C200C202C203C205C206C208C6
:1000930012000CFF700D3007057F0012004FAF43B5
:1000A300AE4222B4255FC2D5C20412000CFF24D095
:1000B300B40A00501A75F00A784030D50508B6FF27
:1000C3000106C6A426F620D5047002D20380D924E3
:1000D300CFB41A00EF5004C2E5D20402024FD2019A
:1000E30080C6D20080C0D20280BCD2D580BAD205ED
:1000F30080B47F2012003E2002077401B540004007
:10010300F1120003FF12003E020077D208D20680EC
:1001130095120003FB120003FA120003F94A4B7015
:100123000679207A037BFF20022EE540602A7E00B9
:100133008E8275830012045560060EEE654170F0E1
:10014300C2D5EBC0E0EAC0E0E9C0E0EE120296D00F
:10015300E0F9D0E0FAD0E0FB120482FF60AAEBC022
:10016300E0EAC0E0E9C0E012003ED0E02401F9D0AB
:10017300E03400FAD0E0FBE5410460DCD541D980EE
:10018300877BFF7A027992D202809C791080027970
:1001930008C206C2088008D2D5790A8004790AC247
:1001A300D5E541047002F541E4FAFDFEFF120003B8
:1001B300FC7B08200113120003FD7B1030000A12A0
:1001C3000003FE120003FF7B20EC3382D592D5504F
:1001D30013C3E43000069FFFE49EFEE42001039D69
:1001E300FDE49CFCE4CBF8C201EC700CCFCECDCC8B
:1001F300E824F8F870F38017C3EF33FFEE33FEED16
:1002030033FDEC33FCEB33FB994002FB0FD8E9EBF6
:10021300300105F8D0E0C448B201C0E00AEC4D4E0D
:100223004F78207B0070C2EAB5410040BCC0E012A9
:100233000298D0F0D0E0200104C4C0E0C4B201C0F1
:10024300F0120027D0F0D5F0EB0200771204BD01C5
:100253001453018E5800E54C00E14201924F019A7C
:0F02630044019A4900FA4301A0550184460184E1
:100272004501844703405000E92D00ED2E01102B6B
:1002820000F123010E2003292A00A94800000108D9
:100292003F3F3F00790AA2D5200314300509B91067
:1002A200020404B9080104A2D52006025001042068
:1002B20002689202B540005034C0E07F203003193A
:1002C2007F30A20272067205500F1202EFC202C202
:1002D20006C205C2087F30800F300503E9C0E01274
:1002E200003E300503D0E0F9D0E0B540CC30051730
:1002F2007F30B9100C12003E7F583004077F78809F
:1003020003B9080312003E3002057F2D02003E7F32
:10031200202008F87F2B2006F322920280CF286E3D
:10032200756C6C2900D2011200033001F8C2017809
:100332004030D50108F60200A92D50434958120059
:10034200032403B405004001E490033B9312002F01
:0D035200743A12002FD20375400402018E90
:100AF300E4FFFE120482600C0FEF70010E09E9702F
:050B0300F20A80EF2260
:10048200BB010689828A83E0225002E722BBFE0278
:09049200E32289828A83E49322AB
:10049B00BB010689828A83F0225002F722BBFE0140
:0204AB00F3223A
:1004AD00FAE6FB0808E6F925F0F618E6CA3AF62250
:1004BD00D083D082F8E4937012740193700DA3A3CE
:1004CD0093F8740193F5828883E4737402936860E2
:0604DD00EFA3A3A380DFE2
:1008F700EFB40A07740D120902740A309811A89907
:10090700B8130CC2983098FDA899C298B811F63060
:0709170099FDC299F5992238
:00000001FF
