:10050600256400C4FAD1A1D4F1C1CBD2BBBAC5C906
:10051600CCC6B700C4FAD1A1D4F1C1CBB6FEBAC5D8
:10052600C9CCC6B700C4FAD1A1D4F1C1CBC8FEBAB2
:10053600C5C9CCC6B700C4FAD1A1D4F1C1CBCBC4CE
:10054600BAC5C9CCC6B700C4FAD1A1D4F1C1CBCEC5
:10055600E5BAC5C9CCC6B700C4FAD1A1D4F1C1CB9E
:10056600C1F9BAC5C9CCC6B700D2BBBAC5C3C5CBDB
:10057600F8D2D1B4F2BFAAA3ACC7EBC8A1D7DFC9E2
:10058600CCC6B700B6FEBAC5C3C5CBF8D2D1B4F255
:10059600BFAAA3ACC7EBC8A1D7DFC9CCC6B700C8F2
:1005A600FEBAC5C3C5CBF8D2D1B4F2BFAAA3ACC7B5
:1005B600EBC8A1D7DFC9CCC6B700CBC4BAC5C3C583
:1005C600CBF8D2D1B4F2BFAAA3ACC7EBC8A1D7DF90
:1005D600C9CCC6B700CEE5BAC5C3C5CBF8D2D1B42F
:1005E600F2BFAAA3ACC7EBC8A1D7DFC9CCC6B70078
:1005F600C1F9BAC5C3C5CBF8D2D1B4F2BFAAA3AC70
:10060600C7EBC8A1D7DFC9CCC6B700D2BBBAC5C332
:10061600C5CEB4B9D8B1D500B6FEBAC5C3C5CEB439
:10062600B9D8B1D500C8BAC5C3C5CEB4B9D8B1D545
:1006360000CBC4BAC5C3C5CEB4B9D8B1D500CEE5D2
:10064600BAC5C3C5CEB4B9D8B1D500C1F9BAC5C308
:10065600C5CEB4B9D8B1D500D3D0CAB2C3B4BFC918
:07066600D2D4B0EFC4FA008A
:0E105200030F00000002092000C109010DFF7C
:0E10430000007F167E037DE3DDFEDEFCDFFA9B
:01105100227C
:100E9F00120FB312106112107912066D12095F1240
:070EAF000B491207A380F2BA
:03002300020D517A
:100D5100C0E0C0D030981BC29885990EC2ACE50E98
:100D610024C97004C296D209D2AC850E993099FD7E
:070D7100C299D0D0D0E0329E
:091083007B007A007909020DC618
:10066D00120D248F08E50C65085508F50B85080C4F
:10067D0024FE604614606D14700302071A14700393
:10068D0002074314700302076C24056003020796EA
:10069D007590FE7512017533FF7534057535067548
:1006AD0036008512377B007A00790912008212100C
:1006BD00837BFF7A0579090207937590FD75120208
:1006CD007533FF7534057535067536008512377B24
:1006DD00007A0079091200821210837BFF7A057966
:1006ED001A0207937590FB7512037533FF75340568
:1006FD007535067536008512377B007A007909123B
:10070D0000821210837BFF7A05792B80797590F723
:10071D007512047533FF753405753506753600850C
:10072D0012377B007A0079091200821210837BFF49
:10073D007A05793C80507590EF7512057533FF750C
:10074D0034057535067536008512377B007A0079CC
:10075D00091200821210837BFF7A05794D8027756F
:10076D0090DF7512067533FF7534057535067536D0
:10077D00008512377B007A007909120082121083EE
:10078D007BFF7A05795E020D78C2A7C2A6C2A5C20B
:06079D00A4C2A3C2A222C7
:10095F0030097CE51224FE601D14602714603414E6
:10096F00604414605424057064D2A23097FD7BFF5D
:10097F007A05796F8028D2A33097FD7BFF7A0579AE
:10098F008A801BD2A43097FD7BFF7A0579A5120DC3
:10099F00788037D2A53097FD7BFF7A0579C0120D8D
:1009AF00781210438024D2A63097FD7BFF7A057909
:1009BF00DB120D781210438011D2A73097FD7BFF09
:1009CF007A0579F6120D78121043120B49C20922DB
:100B490030974AE51224FE601814601D14602214BF
:100B5900602714602C240570317BFF7A0679118097
:100B6900267BFF7A06791E801E7BFF7A06792B8009
:100B7900167BFF7A067937800E7BFF7A06794480E7
:100B8900067BFF7A067951120D780210437590FFA2
:010B99002239
:1007A3007F08120C6A8F0DE50DB4070040030208A1
:1007B300D29007BBF82828730207D00207D9020892
:1007C3000302082D02085602087F0208A87BFF7A5D
:1007D30006795E0208CF7590FE7512017533FF75B9
:1007E30034057535067536008512377B007A007936
:1007F300091200821210837BFF7A0579090208CF60
:100803007590FD7512027533FF75340575350675E0
:1008130036008512377B007A0079091200821210A4
:10082300837BFF7A05791A0208CF7590FB75120353
:100833007533FF7534057535067536008512377BBC
:10084300007A0079091200821210837BFF7A0579FE
:100853002B80797590F77512047533FF7534057520
:1008630035067536008512377B007A007909120048
:10087300821210837BFF7A05793C80507590EF7567
:1008830012057533FF753405753506753600851207
:10089300377B007A0079091200821210837BFF7A7A
:1008A30005794D80277590DF7512067533FF753412
:1008B300057535067536008512377B007A00790990
:1008C3001200821210837BFF7A05795E120D782263
:10000300E50FB4070AE5107006E5117002C296E524
:0F0013000FB4120AE5107006E5117002D29622A2
:100FB300759850E4F587758920D2AFD2AC758BFD57
:060FC300758DFDD28E22A7
:081095008F993099FDC29922E8
:100DC6008B228A238924AB22AA23A92412047860C1
:100DD600130524E5247002052314F9120478FF1282
:050DE600109580E222DF
:0E1061005389F0758ACD758CD4C28DD28C2245
:100D24002080047F0180252081047F02801E208290
:100D3400047F0380172083047F0480102084047FB1
:0C0D44000580092085047F068002E4FF82
:010D50002280
:100B9A005B256325645D005B25635D00BBB6D3AD51
:100BAA00C0B4B5BDB9F0C1D6B5E7D7D3BFC6BCBCD2
:100BBA00B4F3D1A7D0C5CFA2BFC6BCBCD1A7D4BA03
:100BCA0000C7EBCECAC4FAD0E8D2AAB5E3CAB2C308
:080BDA00B4C4D800FD000121A4
:040DEB007F0A7E00FD
:100DEF00D3EF9400EE6480948040147D967C00EDE8
:0F0DFF001D70011CED4C70F7EF1F70E41E80E1BA
:010E0E0022C1
:100FC900D2A000D2A10000000000C2A000000000D1
:060FD90000C2A10000228D
:10103200C2A000D2A10000000000D2A00000000067
:01104200228B
:070BE200AD07120FC97F1ED1
:100BE900E4FEEFA806088002C333D8FC30E704D23C
:100BF900A08002C2A000D2A10000000000C2A10E84
:100C0900BE08DF00000000D2A000000000D2A10051
:0F0C1900000030A004C20A8002D20AC2A100006B
:010C280022A9
:100E0F00E4FFFED2A000C2A10000000000D2A100AA
:100E1F0000EF25E0FF30A0010F00000EBE08E6C274
:030E2F00A100001F
:010E3200229D
:100E6F00200004C2A08002D2A0000000D2A1000086
:080E7F00000000C2A1000022E6
:100E3300AD07120FC97F60120BE9200A02C322AF6C
:100E430005120BE9200A02C322121032120DEBD352
:010E5300227C
:0A0CA9008B3B8A3C893D8C3E8D3F59
:100CB300E4F540F541C3E541953FE53E6480F8E541
:100CC30040648098501DAB3BAA3CA93D8541828579
:100CD3004083120491FF120E330541E54170D6059E
:030CE3004080D27C
:010CE60022EB
:100A43007525FF7526007527007528FF78297C001A
:100A53007D007BFF7A0B79DE7E007F041204527BDC
:100A6300007A0079297D047C00120CA97F647E0042
:100A7300120DEF120FC97F61120BE9200A037F00E9
:100A8300227F057E00120DEF120E0F8F25D200126A
:070A93000E6F121032AF25B7
:010A9A002239
:080A9B008D288B258A2689278E
:100AA300120FF5EF2402FFE43EAD077529FDF52A89
:100AB3008D2B752C0185282D85252E85262F8527A1
:100AC30030AF29120E33AF2A120E33AF2B120E336F
:100AD300AF2C120E33AF2D120E33AB2EAA2FA9302B
:100AE300120FF5AC06AD07AB2EAA2FA930020CA945
:060AF3008B308A318932CC
:100AF900120FF5EF2402FFE43EAD077533FDF5341F
:100B09008D35753601E4F5378530388531398532CB
:100B19003AAF33120E33AF34120E33AF35120E33F0
:100B2900AF36120E33AF37120E33AB38AA39A93AA2
:100B3900120FF5AC06AD07AB38AA39A93A020CA9D0
:030CE700FD7C0091
:020CEA008F2554
:100CEC00EDF47002ECF460127533FF75340B75354E
:100CFC009A8525368C378D38800C7533FF75340BFF
:100D0C007535A18525367B007A0079261200827B09
:080D1C00007A007926020AF3B7
:10100A00EF7F66120CE7120A43EF644F6005120D78
:04101A00EB80F32252
:10101E00EF7F67120CE7120A43EF644F6005120D63
:04102E00EB80F3223E
:100EB600EFFD7C007F68120CEA120A43EF644F6074
:070EC60005120DEB80F32281
:100ECD00EFFD7C007F69120CEA120A43EF644F605C
:070EDD0005120DEB80F3226A
:100EE400EFFD7C007F6D120CEA120A43EF644F6041
:070EF40005120DEB80F32253
:100EFB00EFFD7C007F6E120CEA120A43EF644F6029
:070F0B0005120DEB80F3223B
:100F1200EFFD7C007F6F120CEA120A43EF644F6010
:070F220005120DEB80F32224
:100F2900EFFD7C007F72120CEA120A43EF644F60F6
:070F390005120DEB80F3220D
:09108C00AD07AC067F73020CEA0B
:100F4000AD07AC067F74120CEA120A43EF644F60DF
:070F500005120DEB80F322F6
:040E54007F0A7E0093
:100E5800AD07AC067F76120CEA120A43EF644F60C6
:070E680005120DEB80F322DF
:100F5700EFFD7C007F79120CEA120A43EF644F60C1
:070F670005120DEB80F322DF
:100F6E00EFFD7C007F7A120CEA120A43EF644F60A9
:070F7E0005120DEB80F322C8
:100F850074FFFDFC7F64120CEA120A43EF644F60A4
:070F950005120DEB80F322B1
:100C2900120E547F35120EE47BFF7A0B79A6E4FD90
:100C3900120A9B120A43EF644F6005120DEB80F311
:100C4900120E547F34120EE47BFF7A0B79CBE4FD4C
:100C5900120A9B120A43EF644F6005120DEB80F3F1
:010C69002268
:100D78008B228A238924120E547F34120EE4AB226C
:100D8800AA23A924E4FD120A9B120A43EF644F60C8
:070D980005120DEB80F322B0
:100F9C00120BE2200A02C322AF05120BE9200A024F
:070FAC00C322121032D32210
:0A106F00AC05120F9CAF04020F9CA9
:100C6A00120BE2200A037F0022AF05120BE9200AC9
:100C7A00037F00221210327F327E00120DEF120F14
:100C8A00C97F1F120BE9200A037F00227F017E0021
:0E0C9A00120DEF120E0FD200120E6F1210325A
:010CA8002229
:0809DF008F138B148A15891691
:1009E700E4F517F518120FF5EF2402F519AB14AA61
:1009F70015A916120FF5AC077F01120F9CAF19123C
:100A07000F9CAF13120F9CE4F517F518ECFFC3E525
:100A1700189F7480F8651798501DAB14AA15A9166E
:100A2700851882851783120491FF120F9C0518E51C
:0C0A37001870D9051780D5E4FF020F9C51
:100E8700AC07AA057F03120F9CAF04120F9CAF0299
:080E9700120F9CAF03020F9C37
:100FDF007BFFEB60107F0C120C6AAB077FF47E0176
:050FEF00120DEF80ED82
:010FF40022DA
:0A1079007522FF7D407F0402106F16
:030000000208D320
:0C08D300787FE4F6D8FD75814302091A15
:10038200E709F608DFFA8046E709F208DFFA803E5D
:1003920088828C83E709F0A3DFFA8032E309F6084A
:1003A200DFFA8078E309F208DFFA807088828C83B2
:1003B200E309F0A3DFFA806489828A83E0A3F60866
:1003C200DFFA805889828A83E0A3F208DFFA804C40
:1003D20080D280FA80C680D4806980F28033801017
:1003E20080A680EA809A80A880DA80E280CA803380
:1003F20089828A83ECFAE493A3C8C582C8CCC583F8
:10040200CCF0A3C8C582C8CCC583CCDFE9DEE780C7
:100412000D89828A83E493A3F608DFF9ECFAA9F046
:10042200EDFB2289828A83ECFAE0A3C8C582C8CC9C
:10043200C583CCF0A3C8C582C8CCC583CCDFEADEB5
:10044200E880DB89828A83E493A3F208DFF980CC17
:1004520088F0EF60010E4E60C388F0ED2402B40410
:100462000050B9F582EB2402B4040050AF232345B7
:0604720082239003D27307
:10047800BB010689828A83E0225002E722BBFE0282
:09048800E32289828A83E49322B5
:10049100BB010CE58229F582E5833AF583E0225020
:1004A10006E92582F8E622BBFE06E92582F8E2226A
:0D04B100E58229F582E5833AF583E4932284
:10002600E53F2433F8E6053F22783030070278337F
:10003600E475F0011204D00204782000EB7F2ED282
:10004600008018EF540F2490D43440D4FF30040BB2
:10005600EF24BFB41A0050032461FFE54060021587
:10006600400543E5437002054230070D7830E475DC
:10007600F0011204D0EF0204BE020D9F7403D207F2
:100086008003E4C207F53F8B308A318932E4F540BC
:10009600F542F543E54060077F2012006180F57563
:1000A60041FFC201C200C202C203C205C206C208A3
:1000B60012002FFF700D3007057F00120072AF434C
:1000C600AE4222B4255FC2D5C20412002FFF24D04F
:1000D600B40A00501A75F00A784030D50508B6FF04
:1000E6000106C6A426F620D5047002D20380D924C0
:1000F600CFB41A00EF5004C2E5D204020272D20154
:1001060080C6D20080C0D20280BCD2D580BAD205C9
:1001160080B47F201200612002077401B5400040C0
:10012600F1120026FF12006102009AD208D2068060
:1001360095120026FB120026FA120026F94A4B7089
:100146000679437A037BFF20022EE540602A7E0073
:100156008E8275830012049160060EEE654170F082
:10016600C2D5EBC0E0EAC0E0E9C0E0EE1202B9D0C9
:10017600E0F9D0E0FAD0E0FB120478FF60AAEBC009
:10018600E0EAC0E0E9C0E0120061D0E02401F9D065
:10019600E03400FAD0E0FBE5410460DCD541D980CB
:1001A600877BFF7A0279B5D202809C79108002792A
:1001B60008C206C2088008D2D5790A8004790AC224
:1001C600D5E541047002F541E4FAFDFEFF12002672
:1001D600FC7B08200113120026FD7B1030000A125A
:1001E6000026FE120026FF7B20EC3382D592D550E6
:1001F60013C3E43000069FFFE49EFEE42001039D46
:10020600FDE49CFCE4CBF8C201EC700CCFCECDCC67
:10021600E824F8F870F38017C3EF33FFEE33FEEDF2
:1002260033FDEC33FCEB33FB994002FB0FD8E9EBD3
:10023600300105F8D0E0C448B201C0E00AEC4D4EEA
:100246004F78207B0070C2EAB5410040BCC0E01286
:1002560002BBD0F0D0E0200104C4C0E0C4B201C0AB
:10026600F012004AD0F0D5F0EB02009A1204E00139
:10027600375301B15801084C01044201B54F01BD85
:0F0286004401BD49011D4301C35501A74601A70E
:100295004501A747036350010C2D01102E01332B97
:1002A500011423013120034C2A00CC480000012B06
:1002B5003F3F3F00790AA2D5200314300509B91044
:1002C500020404B9080104A2D52006025001042045
:1002D50002689202B540005034C0E07F2030031917
:1002E5007F30A20272067205500F120312C202C2BB
:1002F50006C205C2087F30800F300503E9C0E01251
:100305000061300503D0E0F9D0E0B540CC300517E9
:100315007F30B9100C1200617F583004077F788058
:1003250003B908031200613002057F2D0200617FC9
:10033500202008F87F2B2006F322920280CF286E1A
:10034500756C6C2900D2011200263001F8C20178C3
:100355004030D50108F60200CC2D50434958120013
:10036500262403B405004001E490035E9312005275
:0D037500743A120052D2037540040201B127
:100FF500E4FFFE120478600C0FEF70010E09E97032
:05100500F20A80EF2259
:1008DF00020E9FE493A3F8E493A34003F68001F282
:1008EF0008DFF48029E493A3F85407240CC8C3331A
:1008FF00C4540F4420C8834004F456800146F6DFE9
:10090F00E4800B0102040810204080901052E47E16
:10091F00019360BCA3FF543F30E509541FFEE493DD
:10092F00A360010ECF54C025E060A840B8E493A3A4
:10093F00FAE493A3F8E493A3C8C582C8CAC583CACF
:10094F00F0A3C8C582C8CAC583CADFE9DEE780BE87
:01106000008F
:1004BE00BB010689828A83F0225002F722BBFE011D
:0204CE00F32217
:1004D000FAE6FB0808E6F925F0F618E6CA3AF6222D
:1004E000D083D082F8E4937012740193700DA3A3AB
:1004F00093F8740193F5828883E4737402936860BF
:06050000EFA3A3A380DFBE
:100D9F00EFB40A07740D120DAA740A309811A899AE
:100DAF00B8130CC2983098FDA899C298B811F630B4
:070DBF0099FDC299F599228C
:00000001FF
