:10056F00D3D0CAB2C3B4BFC9D2D4B0EFC4FA00C497
:10057F00FAD1A1D4F1C1CBD2BBBAC5C9CCC6B70091
:10058F00C4FAD1A1D4F1C1CBB6FEBAC5C9CCC6B796
:10059F0000C4FAD1A1D4F1C1CBC8FEBAC5C9CCC62B
:1005AF00B700C4FAD1A1D4F1C1CBCBC4BAC5C9CC61
:1005BF00C6B700C4FAD1A1D4F1C1CBCEE5BAC5C933
:1005CF00CCC6B700C4FAD1A1D4F1C1CBC1F9BAC519
:0505DF00C9CCC6B70005
:030CA9000112FF36
:0B0C79001208B7120C8E12065480FB0C
:100654007F081208F98F12E512B40700505590066E
:1006640069F828287302067E02068602068E0206B0
:100674009602069E0206A60206AE7BFF7A05796FF5
:10068400802E7BFF7A05797E80267BFF7A05798F21
:10069400801E7BFF7A0579A080167BFF7A0579B1ED
:1006A400800E7BFF7A0579C280067BFF7A0579D3B9
:0A06B4001209B37FF47E01020A2E42
:100BD700759850E4F587758920D2AFD2AC758BFD37
:060BE700758DFDD28E2287
:080CA1008F993099FDC29922E0
:100A05008B0F8A108911AB0FAA10A911120455601A
:100A1500130511E5117002051014F9120455FF12A2
:050A25000CA180E2229B
:100C56005389F0758ACD758CD4C28DD28CD2AFD221
:020C6600A922C1
:1005E40075130175900FE590640F605E75900FAF01
:1005F40090EF24F5601024FE60111460132407703A
:1006040012751301800D751302800875130380039E
:100614007513047590F0AF90EF2450601124E060DE
:100624001124F0601124707013851313800E740468
:10063400800674088002740C2513F513E59064F0A9
:0F064400600BE590640F600580F27513FFAF1334
:010653002284
:100828005B256325645D005B25635D00BBB6D3ADC6
:10083800C0B4B5BDB9F0C1D6B5E7D7D3BFC6BCBC47
:10084800B4F3D1A7D0C5CFA2BFC6BCBCD1A7D4BA78
:1008580000C7EBCECAC4FAD0E8D2AAB5E3CAB2C37D
:08086800B4C4D800FD00012119
:040A2A007F0A7E00C1
:100A2E00D3EF9400EE6480948040147D967C00EDAC
:0F0A3E001D70011CED4C70F7EF1F70E41E80E17E
:010A4D002286
:100BED00D2A000D2A10000000000C2A000000000B1
:060BFD0000C2A10000226D
:100C6800C2A000D2A10000000000D2A00000000035
:010C78002259
:07087000AD07120BED7F1E26
:10087700E4FEEFA806088002C333D8FC30E704D2B1
:10088700A08002C2A000D2A10000000000C2A10EF9
:10089700BE08DF00000000D2A000000000D2A100C7
:0F08A700000030A004C2098002D209C2A10000E3
:0108B600221F
:100A4E00E4FFFED2A000C2A10000000000D2A1006F
:100A5E0000EF25E0FF30A0010F00000EBE08E6C239
:030A6E00A10000E4
:010A71002262
:100A9300200004C2A08002D2A0000000D2A1000066
:080AA300000000C2A1000022C6
:100A7200AD07120BED7F60120877200902C322AF87
:100A820005120877200902C322120C68120A2AD31F
:010A92002241
:0A0938008B3B8A3C893D8C3E8D3FCD
:10094200E4F540F541C3E541953FE53E6480F8E5B5
:1009520040648098501DAB3BAA3CA93D85418285ED
:10096200408312046EFF120A720541E54170D605FA
:030972004080D2F0
:01097500225F
:100722007525FF7526007527007528FF78297C003E
:100732007D007BFF7A08796C7E007F0412042F7B98
:10074200007A0079297D047C001209387F647E00DA
:10075200120A2E120BED7F611208772009037F0027
:10076200227F057E00120A2E120A4E8F25D2001217
:070772000A93120C68AF2589
:01077900225D
:08077A008D288B258A268927B2
:10078200120C19EF2402FFE43EAD077529FDF52A8C
:100792008D2B752C0185282D85252E85262F8527C5
:1007A20030AF29120A72AF2A120A72AF2B120A72E2
:1007B200AF2C120A72AF2D120A72AB2EAA2FA930D9
:1007C200120C19AC06AD07AB2EAA2FA930020938BC
:0607D2008B308A318932F0
:1007D800120C19EF2402FFE43EAD077533FDF53422
:1007E8008D35753601E4F5378530388531398532F0
:1007F8003AAF33120A72AF34120A72AF35120A7264
:10080800AF36120A72AF37120A72AB38AA39A93A50
:10081800120C19AC06AD07AB38AA39A93A02093847
:03097600FD7C0005
:020979008F25C8
:10097B00EDF47002ECF460127533FF7534087535C5
:10098B00288525368C378D38800C7533FF753408E8
:10099B0075352F8525367B007A00792612005F7B13
:0809AB00007A0079260207D250
:100C2E00EF7F66120976120722EF644F6005120AF3
:040C3E002A80F322F3
:100C4200EF7F67120976120722EF644F6005120ADE
:040C52002A80F322DF
:100AC300EFFD7C007F68120979120722EF644F6003
:070AD30005120A2A80F3223C
:100ADA00EFFD7C007F69120979120722EF644F60EB
:070AEA0005120A2A80F32225
:100AF100EFFD7C007F6D120979120722EF644F60D0
:070B010005120A2A80F3220D
:100B0800EFFD7C007F6E120979120722EF644F60B7
:070B180005120A2A80F322F6
:100B1F00EFFD7C007F6F120979120722EF644F609F
:070B2F0005120A2A80F322DF
:100B3600EFFD7C007F72120979120722EF644F6085
:070B460005120A2A80F322C8
:090C9800AD07AC067F7302097977
:100B4D00AD07AC067F74120979120722EF644F606E
:070B5D0005120A2A80F322B1
:100B6400AD07AC067F76120979120722EF644F6055
:070B740005120A2A80F3229A
:100B7B00EFFD7C007F79120979120722EF644F6039
:070B8B0005120A2A80F32283
:100B9200EFFD7C007F7A120979120722EF644F6021
:070BA20005120A2A80F3226C
:100BA90074FFFDFC7F64120979120722EF644F601C
:070BB90005120A2A80F32255
:1008B7007F0A7E00120B647F35120AF17BFF7A08EC
:1008C7007934E4FD12077A120722EF644F600512AC
:1008D7000A2A80F37F34120AF17BFF7A087959E4F8
:1008E700FD12077A120722EF644F6005120A2A8069
:0208F700F322EA
:1009B3008B228A2389247F0A7E00120B647F3412E0
:1009C3000AF1AB22AA23A924E4FD12077A12072213
:0B09D300EF644F6005120A2A80F32237
:100BC000120870200902C322AF051208772009021B
:070BD000C322120C68D322BE
:0A0C8400AC05120BC0AF04020BC058
:1008F9001208702009037F0022AF0512087720092A
:10090900037F0022120C687F327E00120A2E120B1E
:10091900ED7F1F1208772009037F00227F017E00E7
:0E092900120A2E120A4ED200120A93120C6805
:01093700229D
:0806BE008F088B098A0A890BE1
:1006C600E4F50CF50D120C19EF2402F50EAB09AA90
:1006D6000AA90B120C19AC077F01120BC0AF0E1240
:1006E6000BC0AF08120BC0E4F50CF50DECFFC3E52B
:1006F6000D9F7480F8650C98501DAB09AA0AA90BCA
:10070600850D82850C8312046EFF120BC0050DE564
:0C0716000D70D9050C80D5E4FF020BC06B
:100AAB00AC07AA057F03120BC0AF04120BC0AF0239
:080ABB00120BC0AF03020BC0D7
:100C03007BFFEB60107F0C1208F9AB077FF47E01CA
:050C1300120A2E80ED25
:010C180022B9
:0A0C8E007522FF7D407F04020C84F4
:030000000204E314
:0C04E300787FE4F6D8FD75814302052AFD
:10035F00E709F608DFFA8046E709F208DFFA803E80
:10036F0088828C83E709F0A3DFFA8032E309F6086D
:10037F00DFFA8078E309F208DFFA807088828C83D5
:10038F00E309F0A3DFFA806489828A83E0A3F60889
:10039F00DFFA805889828A83E0A3F208DFFA804C63
:1003AF0080D280FA80C680D4806980F2803380103A
:1003BF0080A680EA809A80A880DA80E280CA8033A3
:1003CF0089828A83ECFAE493A3C8C582C8CCC5831B
:1003DF00CCF0A3C8C582C8CCC583CCDFE9DEE780EB
:1003EF000D89828A83E493A3F608DFF9ECFAA9F06A
:1003FF00EDFB2289828A83ECFAE0A3C8C582C8CCC0
:10040F00C583CCF0A3C8C582C8CCC583CCDFEADED8
:10041F00E880DB89828A83E493A3F208DFF980CC3A
:10042F0088F0EF60010E4E60C388F0ED2402B40433
:10043F000050B9F582EB2402B4040050AF232345DA
:06044F0082239003AF734D
:10045500BB010689828A83E0225002E722BBFE02A5
:09046500E32289828A83E49322D8
:10046E00BB010CE58229F582E5833AF583E0225043
:10047E0006E92582F8E622BBFE06E92582F8E2228D
:0D048E00E58229F582E5833AF583E49322A7
:10000300E53F2433F8E6053F2278303007027833A2
:10001300E475F0011204AD0204552000EB7F2ED2EB
:10002300008018EF540F2490D43440D4FF30040BD5
:10003300EF24BFB41A0050032461FFE540600215AA
:10004300400543E5437002054230070D7830E475FF
:10005300F0011204ADEF02049B0209DE7403D20720
:100063008003E4C207F53F8B308A318932E4F540DF
:10007300F542F543E54060077F2012003E80F575A9
:1000830041FFC201C200C202C203C205C206C208C6
:1000930012000CFF700D3007057F0012004FAF43B5
:1000A300AE4222B4255FC2D5C20412000CFF24D095
:1000B300B40A00501A75F00A784030D50508B6FF27
:1000C3000106C6A426F620D5047002D20380D924E3
:1000D300CFB41A00EF5004C2E5D20402024FD2019A
:1000E30080C6D20080C0D20280BCD2D580BAD205ED
:1000F30080B47F2012003E2002077401B540004007
:10010300F1120003FF12003E020077D208D20680EC
:1001130095120003FB120003FA120003F94A4B7015
:100123000679207A037BFF20022EE540602A7E00B9
:100133008E8275830012046E60060EEE654170F0C8
:10014300C2D5EBC0E0EAC0E0E9C0E0EE120296D00F
:10015300E0F9D0E0FAD0E0FB120455FF60AAEBC04F
:10016300E0EAC0E0E9C0E012003ED0E02401F9D0AB
:10017300E03400FAD0E0FBE5410460DCD541D980EE
:10018300877BFF7A027992D202809C791080027970
:1001930008C206C2088008D2D5790A8004790AC247
:1001A300D5E541047002F541E4FAFDFEFF120003B8
:1001B300FC7B08200113120003FD7B1030000A12A0
:1001C3000003FE120003FF7B20EC3382D592D5504F
:1001D30013C3E43000069FFFE49EFEE42001039D69
:1001E300FDE49CFCE4CBF8C201EC700CCFCECDCC8B
:1001F300E824F8F870F38017C3EF33FFEE33FEED16
:1002030033FDEC33FCEB33FB994002FB0FD8E9EBF6
:10021300300105F8D0E0C448B201C0E00AEC4D4E0D
:100223004F78207B0070C2EAB5410040BCC0E012A9
:100233000298D0F0D0E0200104C4C0E0C4B201C0F1
:10024300F0120027D0F0D5F0EB0200771204BD01C5
:100253001453018E5800E54C00E14201924F019A7C
:0F02630044019A4900FA4301A0550184460184E1
:100272004501844703405000E92D00ED2E01102B6B
:1002820000F123010E2003292A00A94800000108D9
:100292003F3F3F00790AA2D5200314300509B91067
:1002A200020404B9080104A2D52006025001042068
:1002B20002689202B540005034C0E07F203003193A
:1002C2007F30A20272067205500F1202EFC202C202
:1002D20006C205C2087F30800F300503E9C0E01274
:1002E200003E300503D0E0F9D0E0B540CC30051730
:1002F2007F30B9100C12003E7F583004077F78809F
:1003020003B9080312003E3002057F2D02003E7F32
:10031200202008F87F2B2006F322920280CF286E3D
:10032200756C6C2900D2011200033001F8C2017809
:100332004030D50108F60200A92D50434958120059
:10034200032403B405004001E490033B9312002F01
:0D035200743A12002FD20375400402018E90
:100C1900E4FFFE120455600C0FEF70010E09E97034
:050C2900F20A80EF2239
:1004EF00020C79E493A3F8E493A34003F68001F29E
:1004FF0008DFF48029E493A3F85407240CC8C3330E
:10050F00C4540F4420C8834004F456800146F6DFDC
:10051F00E4800B0102040810204080900CA9E47EB7
:10052F00019360BCA3FF543F30E509541FFEE493D1
:10053F00A360010ECF54C025E060A840B8E493A398
:10054F00FAE493A3F8E493A3C8C582C8CAC583CAC3
:10055F00F0A3C8C582C8CAC583CADFE9DEE780BE7B
:010CAC000047
:10049B00BB010689828A83F0225002F722BBFE0140
:0204AB00F3223A
:1004AD00FAE6FB0808E6F925F0F618E6CA3AF62250
:1004BD00D083D082F8E4937012740193700DA3A3CE
:1004CD0093F8740193F5828883E4737402936860E2
:0604DD00EFA3A3A380DFE2
:1009DE00EFB40A07740D1209E9740A309811A89938
:1009EE00B8130CC2983098FDA899C298B811F63079
:0709FE0099FDC299F5992251
:00000001FF
